:100000009AC00000B4C00000B2C00000B0C0000040
:10001000AEC00000ACC00000AAC00000A8C0000034
:10002000A6C00000A4C00000A2C000000C94B70944
:100030000C945B0A9CC000009AC0000098C00000AD
:1000400096C0000094C0000092C0000090C0000064
:100050008EC000004BC100008AC0000069C30000D0
:1000600086C0000084C0000082C0000080C0000084
:100070007EC000007CC000007AC0000078C0000094
:1000800076C0000074C0000072C0000070C00000A4
:100090006EC000006CC000001201100102000008D8
:1000A000EB034B2001000102DC0109023E000201CA
:1000B00000C0320904000001020201000524001002
:1000C0000104240206052406000107058203080036
:1000D000FF09040100020A000000070504021000E5
:1000E00005070583021000050403090418034400F2
:1000F000650061006E002000430061006D00650036
:100100007200610000002E034C00550046004100C3
:1001100020005500530042002D00520053003200D1
:100120003300320020004100640061007000740060
:1001300065007200000011241FBECFEFD4E0DEBFC7
:10014000CDBF11E0A0E0B1E0E4E9FFE102C005901D
:100150000D92AE34B107D9F712E0AEE4B1E001C0C0
:100160001D92A43DB107E1F7B3D60C94C80F48CF58
:10017000FC01A081B1816C93808191810196918372
:100180008083268137818217930721F484819581AA
:10019000918380832FB7F894828593850196938706
:1001A00082872FBF0895FC01A281B3818D91B38313
:1001B000A28326813781A217B30721F424813581D8
:1001C000338322839FB7F8942285338521503040B2
:1001D000338722879FBF08952A982B982C982D98B3
:1001E00045B190E09C0121703070220F331F220F27
:1001F000331F422B45B945B19C01227030703595B3
:10020000279573E0220F331F7A95E1F7422B45B90A
:1002100045B19C012470307035952795359527950B
:1002200054E0220F331F5A95E1F7422B45B925B10F
:100230008870907043E0959587954A95E1F735E091
:10024000880F991F3A95E1F7282B25B908952F9823
:100250002E984798469845B190E09C013695322FEC
:10026000222737952795422B45B945B19C0122702D
:1002700030703595279576E0220F331F7A95E1F798
:10028000422B45B948B19C012470307035952795B3
:10029000359527953695322F222737952795422B6E
:1002A00048B928B188709070B3E095958795BA9554
:1002B000E1F7A6E0880F991FAA95E1F7282B28B946
:1002C0000895FC012FB7F894718360837383628370
:1002D0007583648360587F4F7783668380E890E0FE
:1002E00091878087138612862FBF08951F920F92E1
:1002F0000FB60F9211248F938091C6028F5F809367
:10030000C6028F910F900FBE0F901F90189586B563
:100310003091C60220E0280F311DC901089516BC96
:100320001092C6020895DF92EF92FF920F931F93EF
:10033000CF93DF9383E085BDF2DF509A5898E7DFD3
:10034000BC0180E090E00E94810E20E030E84EE0A9
:1003500053E40E94E90D87FDF2CF82E085BDDD24E4
:10036000D39410E0DCDF509A5898D1DFBC0180E0D4
:1003700090E00E94810E20E030E04CE852E40E94C0
:10038000E90D87FDF2CF5098589AC1DFBC0180E09B
:1003900090E00E94810E20E030E048E453E40E94A7
:1003A000E90D87FDF2CF41C0C8E0D0E000E8E12EC2
:1003B000FF248DEA92E0E80EF91EB1DF509A5898BA
:1003C000F7018081802379F0A2DFBC0180E090E01A
:1003D0000E94810E20E030E04CE852E40E94E90DDA
:1003E00087FDF2CF0EC093DFBC0180E090E00E9459
:1003F000810E20E030E042E053E40E94E90D87FDE9
:10040000F2CF5098589A83DFBC0180E090E00E94C0
:10041000810E20E030E048E453E40E94E90D87FDBE
:10042000F2CF0695219749F61F5F1D1508F4BCCF42
:1004300076DF509A58986BDFBC0180E090E00E9414
:10044000810E20E030E042E053E40E94E90D87FD98
:10045000F2CF5098589A5BDFBC0180E090E00E9498
:10046000810E20E030E048E453E40E94E90D87FD6E
:10047000F2CF8091AD028B3329F0893341F409E04A
:10048000D02E02C0B3E0DB2E113009F46BCF47DF72
:100490003EDFBC0180E090E00E94810E20E030E071
:1004A0004AEF53E40E94330F18160CF442C04899E7
:1004B000EFCF489BFECFCEEAD2E011E001C0182F6B
:1004C0001882A8E0EA2EF12C00E829DF20DFBC0129
:1004D00080E090E00E94810E20E030E048E453E4A8
:1004E0000E94330F181614F4115024C04899EECF0F
:1004F00016DF489BFECF0BDFBC0180E090E00E943E
:10050000810E20E030E048EC52E40E94E90D87FFC4
:1005100003C08881800F888306950894E108F1085C
:10052000E114F10491F6812F8F5F2196893039F61D
:1005300001C010E0812FDF91CF911F910F91FF90AB
:10054000EF90DF9008955098589AEEE6F0E08081A1
:100550008160808308958CE38093AD02E4DE809314
:10056000C7028091C70208958BE38093AD0283E6B2
:100570008093AE0281E08093AF02D5DE8FEF91EEE3
:10058000A4E081509040A040E1F700C00000089531
:100590008091C702882351F08091AE0286FF04C08B
:1005A00081958F73819508958F73089580E00895E4
:1005B0008091C702882351F08091AF0286FF04C06A
:1005C00081958F73819508958F73089580E00895C4
:1005D000219A209A569A0895299825B190E0817021
:1005E0009070880F991F282B25B90895289895B1E8
:1005F0008170892B85B908955E982BB190E0817048
:100600009070F6E0880F991FFA95E1F7282B2BB927
:10061000089554983D983C985C9A459A449A089558
:1006200089B190E080719070A4E095958795AA9526
:10063000E1F7089586B190E080729070B5E09595ED
:100640008795BA95E1F7089586B190E08071907032
:1006500024E0959587952A95E1F708951F938FB724
:10066000F89420915C0130915D018FBF80915A0117
:1006700090915B012817390751F088E291E00E94C0
:10068000560DBC0197FD03C082E591E071DD2FB7E7
:10069000F8948091E8019091E9012FBF009709F14A
:1006A000209129012F702093E9002091E80020FF7C
:1006B00018C08031910510F08FE090E0182F0FC026
:1006C000E091E001F091E10188E291E060810E9417
:1006D000E50C1150882329F48EED91E064DD11239F
:1006E00079F788E291E00E943F0D0E94F90B1F917B
:1006F000089584B7877F84BF88E10FB6F89480930C
:100700006000109260000FBE90E080E80FB6F89491
:1007100080936100909361000FBE1AC608950895FA
:1007200088E291E00C94C10C88E291E00C94140CE6
:100730001F920F920FB60F9211242F933F934F9356
:100740005F936F937F938F939F93AF93BF93EF9339
:10075000FF936091CE008EB3843019F48EED91E05A
:1007600007DDFF91EF91BF91AF919F918F917F91A5
:100770006F915F914F913F912F910F900FBE0F900E
:100780001F9018958F929F92AF92BF92CF92DF9257
:10079000EF92FF921F93FC01A18DA150A23028F48B
:1007A000B0E0A95BBE4F1C9101C010E0808D82308B
:1007B00009F41860828D873031F0883031F086304E
:1007C00029F4126003C0146001C016601092C900C1
:1007D0001092C8001092CA00C488D588E688F788AD
:1007E000C701B60196958795779567950E94810E0A
:1007F00020E034E244EF59E40E94850D4B015C0196
:10080000C701B6010E94810E9B01AC01C501B40174
:100810000E94ED0D20E030E040E85FE30E94840D8F
:100820000E94550E7093CD006093CC001093CA00C7
:1008300082E08093C80088E98093C9001F91FF90EF
:10084000EF90DF90CF90BF90AF909F908F900895E2
:10085000682F8EB3843019F48EED91E089CC089521
:10086000EF92FF92CF93DF93E82EE7017E01F92EFE
:10087000E70101C0EDDF89918823E1F7DF91CF9196
:10088000FF90EF9008952F923F924F925F926F9258
:100890007F928F929F92AF92BF92CF92DF92EF9210
:1008A000FF920F931F93CF93DF936B017C01822FF5
:1008B00090E0FA01E80FF91F1082122F1150412E1B
:1008C000552447FC5094EA01C40DD51DAA24BB242D
:1008D0004AE0642E712C812C912C1C010894210873
:1008E000310822C0C114D104E104F10441F4C5016E
:1008F000840D951D8215930514F4088308C0C70163
:10090000B601A40193010E94700F605D6883C70166
:10091000B601A40193010E94700F69017A01115080
:1009200021970894A108B10817FFDCCFDF91CF9180
:100930001F910F91FF90EF90DF90CF90BF90AF90FD
:100940009F908F907F906F905F904F903F902F90EF
:10095000089521E0181619060CF020E0892F881F51
:100960008827881F281B822F08950F93242F77FF35
:1009700003C0709561957F4F882777FD8095982FEC
:1009800046EB52E000E37FDF86EB92E069DF0F91F8
:100990000895FF920F931F93242FF62E172F77FFA2
:1009A00003C0709561957F4F882777FD8095982FBC
:1009B00046EB52E000E267DF8F2D912FCADF87FF01
:1009C00002C08DE201C08BE243DF86EB92E048DF9C
:1009D0001F910F91FF90089580E0FEDB80E037DCEF
:1009E000229A239A249A259A279A269A3F9A3E9ADF
:1009F00008950F931F93162F823050F4A82FB0E064
:100A0000AA0FBB1FA75BBE4F2D913C91119702C04F
:100A10002CEE30E0E82FF0E0812F992787FD9095AC
:100A20000496EA55FD4F4081840F911D64E070E00B
:100A30000E945D0F8083E82FF0E0ED5BFE4F0081A8
:100A4000112311F0802F01C080E0F9010995802F5A
:100A50001F910F9108950F931F932091A40230913D
:100A6000A502280F391F3093A5022093A40280917C
:100A7000A2029091A302860F971F9093A3028093E6
:100A8000A202C90166DF082F11E0882309F410E0F3
:100A900080E0602FAEDF602F772767FD7095209193
:100AA000A4023091A502261B370B3093A502209398
:100AB000A4028091A2029091A3024BDF082F811122
:100AC0001F5F81E0602F95DF602F772767FD7095AE
:100AD0002091A2023091A302261B370B3093A30270
:100AE0002093A2028FE39CE90197F1F700C0000078
:100AF000812F1F910F9108950F931F938C0168E12F
:100B000070E00E945D0F882777FD8095982F43E065
:100B100040DF8EE29DDEC80117FF03C090958195EE
:100B20009F4F68E170E00E945D0F61EA71E00E94F2
:100B3000370F6AE070E00E945D0F882777FD80958F
:100B4000982F43E012DF1F910F91089580E091E00C
:100B500087DE80914E0190914F01CEDF88E091E0D9
:100B60007FDE8091500190915101C6DF82E191E0DA
:100B700077CECF92DF92EF92FF920F931F93CF9396
:100B8000DF932FB7F89480915C0190915D012FBFA6
:100B9000009709F494C182E591E005DB182F8D30B0
:100BA00019F08A3009F074C184E191E059DE809136
:100BB0006D02E82FF0E0EE57FD4F108280936C023B
:100BC00010926D0280918202873659F0873449F085
:100BD0008D3649F08D3439F08A3739F08A3539F459
:100BE00004C001E005C002E003C003E001C000E072
:100BF00080918302883739F0883529F0893729F0C8
:100C000011E0893519F010E001C011E0802F81500A
:100C1000823008F06DC01092710210927002109232
:100C20006F0210926E0210926B0210926A0272E0D2
:100C3000F72EDD24D39460E3C62E54C0E0906B02FF
:100C4000EE2049F4EF2DF0E0EE57FD4F80818D321C
:100C500011F4DD24DA94CF2DD0E0FE01EE57FD4FE4
:100C6000808180538A3028F4EE20D9F5F0926B020F
:100C700038C0EE20B1F16E2D70E0C61BD70B6E5759
:100C80007D4F82E792E0AE010E94AF0FCE58DD4F5C
:100C9000188280916A028F5F80936A02813049F4E2
:100CA00082E792E00E94920F90937102809370020B
:100CB00016C08F2D8E19833040F4E82FF0E0EE58E7
:100CC000FD4FC0828F5F8330C1F71092750282E7BB
:100CD00092E00E94920F90936F0280936E021092A6
:100CE0006B02F39480916C028F1508F0A7CF02C0BD
:100CF000DD24D394023009F461C0033009F4BEC08E
:100D0000013009F0C3C087E191E0AADD812F885A44
:100D10009FDD80E29DDDCD2DDD27C7FDD095609163
:100D2000700270917102CE010E94370FBC0180E009
:100D300090E043E02EDE8EE28BDD60916E027091DA
:100D40006F0280E090E043E010DE84E191E088DD16
:100D500080916E0290916F026AE070E00E94370FFE
:100D600060EA71E00E94490F9B01809170029091AE
:100D7000710268E170E00E94370F280F391FCE0121
:100D8000B9010E94370F112369F420914E0130916F
:100D90004F01E82EE7017E01F92EE701C21BD30BBC
:100DA000CE014FC02091500130915101E82EE70152
:100DB0007E01F92EE701C21BD30B51C08DE191E0FA
:100DC0004FDD812F885A44DD80E242DDCD2DDD27C5
:100DD000C7FDD0956091700270917102CE010E94A2
:100DE000370FBC0180E090E043E0D3DD8EE230DDE0
:100DF00060916E0270916F0280E090E043E0B5DD9B
:100E000084E191E02DDD80916E0290916F026AE0A5
:100E100070E00E94370F60EA71E00E94490F9B0169
:100E2000809170029091710268E170E00E94370F2A
:100E3000280F391FCE01B9010E94370FEC01112391
:100E400071F460E070E007DE80914E0190914F01F7
:100E50008C0F9D1F90934F0180934E0117C080E02F
:100E600090E0BE01F8DD80915001909151018C0F0E
:100E70009D1F909351018093500108C010924F0123
:100E800010924E0110925101109250015FDE17C076
:100E900080916D02882319F483E291E0E1DC809176
:100EA0006D02183011F4815006C0E82FF0E0EE57C3
:100EB000FD4F10838F5F80936D02812FC9DCDF911E
:100EC000CF911F910F91FF90EF90DF90CF900895F9
:100ED0000F931F93DF93CF930F92CDB7DEB77CDDD7
:100EE00077DB97DB06DC82E591E06EE571E0E9D91E
:100EF0008EED91E06AEE71E0E4D9789424DB8FEF17
:100F000099E6A8E181509040A040E1F700C00000C0
:100F100078942ADB10E001C0182F82DB5DDB8ADBCE
:100F200065DB92DB69DB9ADB24DE15DB41DB082F16
:100F30002FDB0195402F552747FD509520914E01FD
:100F400030914F01240F351F30934F0120934E01F4
:100F50008195682F772767FD70958091500190915A
:100F60005101860F971F9093510180935001CA0140
:100F700072DD112389F2882379F68983E7DD89817F
:100F8000CBCF923029F0933041F09130E9F417C083
:100F90002EE330E0EAEAF0E01BC0813041F081301E
:100FA00018F0823089F406C0E8EEF0E005C0ECEEFF
:100FB000F0E002C0E6E0F1E0249130E009C022E177
:100FC00030E0E8E9F0E004C020E030E0E0E0F0E00C
:100FD000DA011196FC93EE93C9010895282F392F59
:100FE000F9018091D2029091D3028617970718F4E5
:100FF000BC0120E034C061157105D9F78091E8008B
:101000008E778093E800F5CF8EB38823E9F18530A1
:10101000B9F18091E80083FD35C08091E80082FD40
:1010200029C08091E80080FF1AC08091F20090E012
:1010300006C021912093F100615070400196611526
:10104000710519F088309105A0F321E088309105F1
:1010500009F020E08091E8008E778093E800611528
:10106000710591F6222381F605C08EB3882361F0C5
:10107000853061F08091E80082FFF7CF80E008952D
:1010800083E0089581E0089582E0089583E0089563
:10109000E82FF92F8091D2029091D30286179707FB
:1010A00018F4BC0120E036C061157105D9F78091B4
:1010B000E8008E778093E800F5CF8EB3882309F49B
:1010C0003EC08530C1F18091E80083FD36C080913B
:1010D000E80082FD2AC08091E80080FF1BC080915B
:1010E000F20090E007C024912093F1003196615006
:1010F000704001966115710519F08830910598F3DB
:1011000021E08830910509F020E08091E8008E7799
:101110008093E8006115710581F6222371F605C000
:101120008EB3882361F0853061F08091E80082FF02
:10113000F7CF80E0089583E0089581E0089582E08C
:10114000089583E00895982F2CC0292F2F702093A5
:10115000E900981739F07091EC002091ED00509162
:10116000F00003C0242F762F50E021FF19C03091EA
:10117000EB003E7F3093EB003091ED003D7F3093EC
:10118000ED003091EB0031603093EB007093EC0098
:101190002093ED005093F0002091EE0027FF08C04F
:1011A0009F5F953090F28F708093E90081E0089501
:1011B00080E00895EF92FF920F931F93CF93DF93F8
:1011C000162FE82EE7017E01F92EE70100E02AC084
:1011D0009881992329F16B81E981FA812C81892FEA
:1011E0008F70853018F56295660F660F607C991FC9
:1011F0009927991F692B223010F096E001C092E0E8
:1012000028E030E040E003C04F5F220F331F2E176D
:101210003F07D0F34295407F492B95DF882331F07B
:101220000F5F25960117A0F281E001C080E0DF91F9
:10123000CF911F910F91FF90EF9008958091CC0274
:1012400087FF11C003C08EB38823B1F08091E800FE
:1012500082FFF9CF8091E8008B778093E8000895B2
:101260008EB3882349F08091E80080FFF9CF809108
:10127000E8008E778093E80008958091E4009091D3
:10128000E50044E62091EC0020FF25C02091E80015
:1012900020FD15C02EB32223A1F02530A1F020910E
:1012A000EB0025FD12C02091E4003091E5002817E5
:1012B000390741F3442359F04150C901E3CF80E09D
:1012C000089582E0089583E0089581E0089584E020
:1012D000089580E008952091E80022FFDBCFF9CF48
:1012E00040D042D08091D8008F778093D8008091F1
:1012F000D80080688093D8008091D8008F7D80933B
:10130000D80084E089BD86E089BD09B400FEFDCF28
:101310001EBA1092C8021092CA021092C90280E04E
:1013200060E042E010DF8091E1008E7F8093E10079
:101330008091E20081608093E2008091E200886009
:101340008093E2008091E0008E7F8093E00008951A
:10135000E3E6F0E080818E7F808381E08093CB02A2
:10136000BFCF1092E20008951092E10008951F92FD
:101370000F920FB60F9211242F933F934F935F93C9
:101380006F937F938F939F93AF93BF93EF93FF934D
:101390008091E10082FF0AC08091E20082FF06C0D6
:1013A0008091E1008B7F8093E10022D28091E10067
:1013B00080FF16C08091E20080FF12C08091E200A1
:1013C0008E7F8093E2008091E20080618093E20052
:1013D0008091D80080628093D80019BC1EBA9FD932
:1013E0008091E10084FF2CC08091E20084FF28C03E
:1013F00084E089BD86E089BD09B400FEFDCF8091FF
:10140000D8008F7D8093D8008091E1008F7E8093FB
:10141000E1008091E2008F7E8093E2008091E20003
:1014200081608093E2008091C802882321F480913A
:10143000E30087FF02C084E001C081E08EBB6ED96B
:101440008091E10083FF26C08091E20083FF22C0EB
:101450008091E100877F8093E10082E08EBB109253
:10146000C8028091E1008E7F8093E1008091E200CC
:101470008E7F8093E2008091E20080618093E200A1
:1014800080E060E042E05FDE8091F0008860809361
:10149000F000AED1FF91EF91BF91AF919F918F91ED
:1014A0007F916F915F914F913F912F910F900FBE60
:1014B0000F901F9018951F920F920FB60F92112444
:1014C0001F932F933F934F935F936F937F938F93CC
:1014D0009F93AF93BF93EF93FF931091E9001F7019
:1014E0008091EC001092E9008091F000877F80935A
:1014F000F00078941BD01092E9008091F000886091
:101500008093F0001093E900FF91EF91BF91AF91AC
:101510009F918F917F916F915F914F913F912F910B
:101520001F910F900FBE0F901F9018951F93DF9380
:10153000CF93CDB7DEB7AC970FB6F894DEBF0FBE32
:10154000CDBFECECF2E08091F100819322E0E43D2C
:10155000F207C9F7E9D88091E80083FF31C1809193
:10156000CC022091CD02253009F484C0263040F40D
:101570002130A1F1213070F0233009F021C12EC0BB
:10158000283009F4EFC0293009F4FEC0263009F0F4
:1015900017C192C0803821F0823809F011C108C00B
:1015A0008091C9029091CA02992371F082600CC0A7
:1015B0008091D0028F708093E9009091EB0081E0E0
:1015C00095FF80E01092E9009091E800977F90935A
:1015D000E8008093F1001092F100CFC0882319F049
:1015E000823009F0EDC090E08F719070009729F083
:1015F0008230910509F0E4C00BC08091CE028130A9
:1016000009F0DEC0233009F080E08093CA022CC0CC
:101610008091CE02882341F52091D0022F7009F4E9
:10162000CFC02093E9008091EB0080FF1DC0809126
:10163000CD02833021F48091EB00806213C0809151
:10164000EB0080618093EB0081E090E002C0880FA6
:10165000991F2A95E2F78093EA001092EA008091A0
:10166000EB0088608093EB001092E9008091E80025
:10167000877F86C0882309F0A3C01091CE021F7710
:101680008091E3008078812B8093E3008091E800D3
:10169000877F8093E800D2DD8091E80080FFFCCF57
:1016A0008091E30080688093E300112311F083E0D0
:1016B00001C082E08EBB84C08058823008F080C0B8
:1016C0008091CE029091CF0223E08C3D920791F55C
:1016D00083E08C838AE28B835FB7F894DE011596F2
:1016E00080E090E04EE061E2E42FF0E0609357008C
:1016F000E49180FF03C0E295EF704F5FEF702E2FF3
:1017000030E0EA3018F0295C3F4F02C0205D3F4FC7
:101710002D933D9301968431910531F75FBF809100
:10172000E800877F8093E800CE0103966AE270E0CC
:1017300055DC12C06091D002AE014F5F5F4F21DCDB
:10174000BC01009709F43CC08091E800877F80933A
:10175000E80089819A819CDC8091E8008B778093F6
:10176000E8002EC0803861F58091E800877F809383
:10177000E8008091C8028093F1008091E8008E77A4
:101780008093E8005BDD1CC08823D1F49091CE02E9
:101790009230B0F48091E800877F8093E8009093C6
:1017A000C8024CDD8091C802882321F48091E300B7
:1017B00087FF02C084E001C081E08EBB0E949003DD
:1017C0008091E80083FF0AC08091E800877F8093C2
:1017D000E8008091EB0080628093EB00AC960FB63E
:1017E000F894DEBF0FBECDBFCF91DF911F9108955A
:1017F00008951F938EB38823A9F08091E9008F701C
:101800009091EC0090FF02C010E801C010E0182B8E
:101810001092E9008091E80083FF01C087DE1F700D
:101820001093E9001F910895CF93DF93EC0180910D
:10183000E80083FFA3C0888190E02091D00230911E
:10184000D1022817390709F099C08091CD02813261
:1018500069F0823220F4803209F090C03CC08232BC
:1018600009F46BC0833209F089C07AC08091CC0240
:10187000813A09F083C08091E800877F8093E80077
:101880008091E80080FFFCCF8C899D89AE89BF895B
:101890008093F100292F3A2F4B2F55272093F100E9
:1018A0009D01442755272093F1008B2F9927AA27C4
:1018B000BB278093F100888D8093F100898D809300
:1018C000F1008A8D8093F1008091E8008E778093FB
:1018D000E800B4DC53C08091CC02813209F04EC0E4
:1018E0008091E800877F8093E80004C08EB388234E
:1018F00009F444C08091E80082FFF8CF3091F100F4
:101900002091F1009091F1008091F1003C8B2D8BA2
:101910009E8B8F8B8091F100888F8091F100898F51
:101920008091F1008A8F8091E8008B778093E800A6
:1019300085DCCE010E94C20321C08091CC0281329D
:10194000E9F48091E800877F8093E80077DC80915C
:10195000CE029091CF02998B888BCE01D4D00EC04D
:101960008091CC02813251F48091E800877F80938E
:10197000E80064DCCE016091CE02C5D0DF91CF914A
:101980000895CF93DF93EC014096FC018BE0DF01DB
:101990001D928A95E9F782E08C83898783E08E87A0
:1019A000CE01019661E006DC882359F0CE0106964F
:1019B00061E000DC882329F0CE010B9661E0FADBC0
:1019C00001C080E0DF91CF910895DF93CF930F9214
:1019D000CDB7DEB7FC018EB38430F9F424893589A4
:1019E000468957892115310541055105B1F081819D
:1019F0008F708093E9008091E80085FD0AC0809196
:101A0000E8008E778093E800698337DC698188235A
:101A100029F46093F10080E001C082E00F90CF9143
:101A2000DF910895FC018EB3843019F5248935893E
:101A3000468957892115310541055105D1F081812C
:101A40008F708093E9008091F2008823A1F090913B
:101A5000E8008091E8008E778093E80095FD0DC046
:101A60000CDC882359F49091E8009E779093E8006D
:101A7000089582E0089580E0089580E008952EB3EF
:101A8000243099F4FC012489358946895789211528
:101A900031054105510549F021812F702093E9005E
:101AA0002091E80020FF01C0BDCF0895FC018EB356
:101AB000843029F5248935894689578921153105CE
:101AC00041055105E1F086818F708093E900809196
:101AD000E80082FF14C08091F200882321F0209159
:101AE000F10030E002C02FEF3FEF8091F200882339
:101AF00041F48091E8008B778093E80002C02FEFDB
:101B00003FEFC901089508955058BB27AA270ED06A
:101B100070C161D130F066D120F031F49F3F11F4F3
:101B20001EF456C10EF4E095E7FB4CC1E92F72D1CB
:101B300080F3BA17620773078407950718F071F4EA
:101B40009EF58AC10EF4E0950B2EBA2FA02D0B0145
:101B5000B90190010C01CA01A0011124FF27591BF2
:101B600099F0593F50F4503E68F11A16F040A22FF8
:101B7000232F342F4427585FF3CF46953795279569
:101B8000A795F0405395C9F77EF41F16BA0B620B68
:101B9000730B840BBAF09150A1F0FF0FBB1F661FAF
:101BA000771F881FC2F70EC0BA0F621F731F841FF2
:101BB00048F4879577956795B795F7959E3F08F018
:101BC000B3CF9395880F08F09927EE0F97958795D7
:101BD0000895D4D008F481E008950CD00AC102D150
:101BE00040F0F9D030F021F45F3F19F0EBC0511113
:101BF00034C1EEC00FD198F39923C9F35523B1F343
:101C0000951B550BBB27AA2762177307840738F06B
:101C10009F5F5F4F220F331F441FAA1FA9F333D0CA
:101C20000E2E3AF0E0E830D091505040E695001C7E
:101C3000CAF729D0FE2F27D0660F771F881FBB1F3A
:101C4000261737074807AB07B0E809F0BB0B802D14
:101C5000BF01FF2793585F4F2AF09E3F510568F060
:101C6000B1C0FBC05F3FECF3983EDCF386957795FF
:101C70006795B795F7959F5FC9F7880F911D969562
:101C8000879597F90895E1E0660F771F881FBB1FBE
:101C9000621773078407BA0720F0621B730B840B6B
:101CA000BA0BEE1F88F7E0950895BCD088F09F57D7
:101CB00090F0B92F9927B751A0F0D1F0660F771F98
:101CC000881F991F1AF0BA95C9F712C0B13081F078
:101CD000C3D0B1E00895C0C0672F782F8827B85FC0
:101CE00039F0B93FCCF3869577956795B395D9F7D9
:101CF0003EF490958095709561957F4F8F4F9F4FE3
:101D00000895E89409C097FB3EF4909580957095EE
:101D100061957F4F8F4F9F4F9923A9F0F92F96E937
:101D2000BB279395F695879577956795B795F111AC
:101D3000F8CFFAF4BB0F11F460FF1BC06F5F7F4F49
:101D40008F4F9F4F16C0882311F096E911C077235B
:101D500021F09EE8872F762F05C0662371F096E864
:101D6000862F70E060E02AF09A95660F771F881F33
:101D7000DAF7880F9695879597F90895990F0008D7
:101D8000550FAA0BE0E8FEEF16161706E807F9074D
:101D9000C0F012161306E407F50798F0621B730BE8
:101DA000840B950B39F40A2661F0232B242B252B69
:101DB00021F408950A2609F4A140A6958FEF811D0C
:101DC000811D089597F99F6780E870E060E00895AD
:101DD0009FEF80EC089500240A9416161706180643
:101DE0000906089500240A9412161306140605061F
:101DF0000895092E0394000C11F4882352F0BB0FB0
:101E000040F4BF2B11F460FF04C06F5F7F4F8F4F12
:101E10009F4F089557FD9058440F551F59F05F3F4D
:101E200071F04795880F97FB991F61F09F3F79F0FC
:101E300087950895121613061406551FF2CF46957E
:101E4000F1DF08C0161617061806991FF1CF869500
:101E50007105610508940895E894BB2766277727E4
:101E6000CB0197F908958ADF08F48FEF089555277D
:101E7000002480FF02C0060E571F660F771F6115F2
:101E8000710521F096958795009799F7952F802DEC
:101E90000895AA1BBB1B51E107C0AA1FBB1FA617B1
:101EA000B70710F0A61BB70B881F991F5A95A9F703
:101EB00080959095BC01CD01089597FB092E0726CA
:101EC0000AD077FD04D0E5DF06D000201AF4709523
:101ED00061957F4F0895F6F7909581959F4F0895EE
:101EE000A1E21A2EAA1BBB1BFD010DC0AA1FBB1F1E
:101EF000EE1FFF1FA217B307E407F50720F0A21B90
:101F0000B30BE40BF50B661F771F881F991F1A94FC
:101F100069F760957095809590959B01AC01BD0126
:101F2000CF010895FC0188279927E8942191203258
:101F3000E9F3293010F02E30C8F32B3239F02D326E
:101F400031F4689403C01AD0820F911D219120535F
:101F50002A30C8F31EF4909581959F4F0895FB0198
:101F6000DC014150504048F001900D920020C9F72B
:101F700001C01D9241505040E0F70895BC01880F08
:101F8000991F880F991F860F971F880F991F089513
:041F9000F894FFCFF3
:101F9400785F706F733A20002020795F706F733A16
:101FA40020000D000D0A00474F544F20004D4F569E
:101FB4004520000D0A2420000083100000010410B5
:101FC4000000018208000001000000000000000081
:0E1FD4000000000A0905063020EC002701007D
:00000001FF
