:100000009AC00000B4C00000B2C00000B0C0000040
:10001000AEC00000ACC00000AAC00000A8C0000034
:10002000A6C00000A4C00000A2C000000C943109CA
:100030000C94D5099CC000009AC0000098C0000034
:1000400096C0000094C0000092C0000090C0000064
:100050008EC000004BC100008AC0000023C3000016
:1000600086C0000084C0000082C0000080C0000084
:100070007EC000007CC000007AC0000078C0000094
:1000800076C0000074C0000072C0000070C00000A4
:100090006EC000006CC000001201100102000008D8
:1000A000EB034B2001000102DC0109023E000201CA
:1000B00000C0320904000001020201000524001002
:1000C0000104240206052406000107058203080036
:1000D000FF09040100020A000000070504021000E5
:1000E00005070583021000050403090418034400F2
:1000F000650061006E002000430061006D00650036
:100100007200610000002E034C00550046004100C3
:1001100020005500530042002D00520053003200D1
:100120003300320020004100640061007000740060
:1001300065007200000011241FBECFEFD4E0DEBFC7
:10014000CDBF11E0A0E0B1E0E8E8FEE102C005901B
:100150000D92AA37B107D9F712E0AAE7B1E001C0C2
:100160001D92A03FB107E1F72FD60C94420F48CF64
:10017000FC01A081B1816C93808191810196918372
:100180008083268137818217930721F484819581AA
:10019000918380832FB7F894828593850196938706
:1001A00082872FBF0895FC01A281B3818D91B38313
:1001B000A28326813781A217B30721F424813581D8
:1001C000338322839FB7F8942285338521503040B2
:1001D000338722879FBF08952A982B982C982D98B3
:1001E00045B190E09C0121703070220F331F220F27
:1001F000331F422B45B945B19C01227030703595B3
:10020000279573E0220F331F7A95E1F7422B45B90A
:1002100045B19C012470307035952795359527950B
:1002200054E0220F331F5A95E1F7422B45B925B10F
:100230008870907043E0959587954A95E1F735E091
:10024000880F991F3A95E1F7282B25B908952F9823
:100250002E984798469845B190E09C013695322FEC
:10026000222737952795422B45B945B19C0122702D
:1002700030703595279576E0220F331F7A95E1F798
:10028000422B45B948B19C012470307035952795B3
:10029000359527953695322F222737952795422B6E
:1002A00048B928B188709070B3E095958795BA9554
:1002B000E1F7A6E0880F991FAA95E1F7282B28B946
:1002C0000895FC012FB7F894718360837383628370
:1002D0007583648360587F4F7783668380E890E0FE
:1002E00091878087138612862FBF08951F920F92E1
:1002F0000FB60F9211248F938091E2028F5F80934B
:10030000E2028F910F900FBE0F901F90189586B547
:100310003091E20220E0280F311DC901089516BC7A
:100320001092E2020895DF92EF92FF920F931F93D3
:10033000CF93DF9383E085BDF2DF509A5898E7DFD3
:10034000BC0180E090E00E94FB0D20E030E84EE030
:1003500053E40E94630D87FDF2CF82E085BDDD246A
:10036000D39410E0DCDF509A5898D1DFBC0180E0D4
:1003700090E00E94FB0D20E030E04CE852E40E9447
:10038000630D87FDF2CF5098589AC1DFBC0180E021
:1003900090E00E94FB0D20E030E048E453E40E942E
:1003A000630D87FDF2CF41C0C8E0D0E000E8E12E48
:1003B000FF2489EC92E0E80EF91EB1DF509A5898BC
:1003C000F7018081802379F0A2DFBC0180E090E01A
:1003D0000E94FB0D20E030E04CE852E40E94630DE7
:1003E00087FDF2CF0EC093DFBC0180E090E00E9459
:1003F000FB0D20E030E042E053E40E94630D87FDF6
:10040000F2CF5098589A83DFBC0180E090E00E94C0
:10041000FB0D20E030E048E453E40E94630D87FDCB
:10042000F2CF0695219749F61F5F1D1508F4BCCF42
:1004300076DF509A58986BDFBC0180E090E00E9414
:10044000FB0D20E030E042E053E40E94630D87FDA5
:10045000F2CF5098589A5BDFBC0180E090E00E9498
:10046000FB0D20E030E048E453E40E94630D87FD7B
:10047000F2CF8091C9028B3329F0893341F409E02E
:10048000D02E02C0B3E0DB2E113009F46BCF47DF72
:100490003EDFBC0180E090E00E94FB0D20E030E0F8
:1004A0004AEF53E40E94AD0E18160CF442C048996E
:1004B000EFCF489BFECFCAECD2E011E001C0182F6D
:1004C0001882A8E0EA2EF12C00E829DF20DFBC0129
:1004D00080E090E00E94FB0D20E030E048E453E42F
:1004E0000E94AD0E181614F4115024C04899EECF96
:1004F00016DF489BFECF0BDFBC0180E090E00E943E
:10050000FB0D20E030E048EC52E40E94630D87FFD1
:1005100003C08881800F888306950894E108F1085C
:10052000E114F10491F6812F8F5F2196893039F61D
:1005300001C010E0812FDF91CF911F910F91FF90AB
:10054000EF90DF9008955098589AEEE6F0E08081A1
:100550008160808308958CE38093C902E4DE8093F8
:10056000E3028091E30208958BE38093C90283E65E
:100570008093CA0281E08093CB02D5DE8FEF91EEAB
:10058000A4E081509040A040E1F700C00000089531
:100590008091E302882351F08091CA0286FF04C053
:1005A00081958F73819508958F73089580E00895E4
:1005B0008091E302882351F08091CB0286FF04C032
:1005C00081958F73819508958F73089580E00895C4
:1005D0001F938FB7F89420918801309189018FBFC4
:1005E00080918601909187012817390751F084E5A1
:1005F00091E00E94D00CBC0197FD03C08EE791E012
:10060000B7DD2FB7F89480911402909115022FBF97
:10061000009709F1209155012F702093E900209156
:10062000E80020FF18C08031910510F08FE090E0C5
:10063000182F0FC0E0910C02F0910D0284E591E0BB
:1006400060810E945F0C1150882329F48AE092E0B7
:10065000AADD112379F784E591E00E94B90C0E948C
:10066000730B1F91089584B7877F84BF88E10FB60D
:10067000F89480936000109260000FBE90E080E8D4
:100680000FB6F89480936100909361000FBEDAC5B5
:100690000895089584E591E00C943B0C84E591E085
:1006A0000C948E0B1F920F920FB60F9211242F9362
:1006B0003F934F935F936F937F938F939F93AF93EA
:1006C000BF93EF93FF936091CE008EB3843019F403
:1006D0008AE092E04DDDFF91EF91BF91AF919F9144
:1006E0008F917F916F915F914F913F912F910F90DB
:1006F0000FBE0F901F9018958F929F92AF92BF924E
:10070000CF92DF92EF92FF921F93FC01A18DA15037
:10071000A23028F4B0E0AD58BE4F1C9101C010E0EB
:10072000808D823009F41860828D873031F08830F6
:1007300031F0863029F4126003C0146001C01660E5
:100740001092C9001092C8001092CA00C488D588BF
:10075000E688F788C701B6019695879577956795DE
:100760000E94FB0D20E034E244EF59E40E94FF0CAC
:100770004B015C01C701B6010E94FB0D9B01AC015E
:10078000C501B4010E94670D20E030E040E85FE35E
:100790000E94FE0C0E94CF0D7093CD006093CC00A0
:1007A0001093CA0082E08093C80088E98093C90052
:1007B0001F91FF90EF90DF90CF90BF90AF909F90F0
:1007C0008F900895682F8EB3843019F48AE092E0F8
:1007D000CFCC0895EF92FF92CF93DF93E82EE701FD
:1007E0007E01F92EE70101C0EDDF89918823E1F751
:1007F000DF91CF91FF90EF9008952F923F924F920B
:100800005F926F927F928F929F92AF92BF92CF92A0
:10081000DF92EF92FF920F931F93CF93DF937B01B1
:100820008C01822F90E0FA01E80FF91F1082D22E7E
:10083000DA944D2C552447FC5094EA01C40DD51D83
:10084000AA24BB24AAE06A2E712C812C912C1C01B5
:10085000089421083108F0E2CF2E22C0E114F104FF
:100860000105110541F4C501840D951D82159305FF
:1008700014F4C88208C0C801B701A40193010E9402
:10088000EA0E605D6883C801B701A40193010E946C
:10089000EA0E79018A01DA9421970894A108B10837
:1008A000D7FEDCCFDF91CF911F910F91FF90EF909A
:1008B000DF90CF90BF90AF909F908F907F906F9080
:1008C0005F904F903F902F90089521E018161906E1
:1008D0000CF020E0892F881F8827881F281B822F73
:1008E0000895242F77FF03C0709561957F4F882767
:1008F00077FD8095982F42ED52E07FDF82ED92E008
:1009000069CF0F931F93242F8B0177FF03C070953E
:1009100061957F4F882777FD8095982F42ED52E0B3
:100920006CDFC801D2DF87FF02C08DE201C08BE21D
:1009300049DF82ED92E04EDF1F910F91089580E034
:100940004BDC80E084DC229A239A249A259A279A09
:10095000269A3F9A3E9A08950F931F93162F82303E
:1009600050F4A82FB0E0AA0FBB1FAB58BE4F2D917B
:100970003C91119702C02CEE30E0E82FF0E0812F7F
:10098000992787FD90950496EE53FD4F4081840F83
:10099000911D64E070E00E94D70E8083E82FF0E0A4
:1009A000E159FE4F0081112311F0802F01C080E03A
:1009B000F9010995802F1F910F9108950F931F93AF
:1009C0002091C0023091C102280F391F3093C1021B
:1009D0002093C0028091BE029091BF02860F971FA4
:1009E0009093BF028093BE02C9016FDF082F11E010
:1009F000882309F410E080E0602FAEDF602F7727B6
:100A000067FD70952091C0023091C102261B370B03
:100A10003093C1022093C0028091BE029091BF0228
:100A200054DF082F81111F5F81E0602F95DF602F59
:100A3000772767FD70952091BE023091BF02261B7B
:100A4000370B3093BF022093BE02812F1F910F916D
:100A5000089580E091E0BEDE60917A0170917B01A3
:100A6000882777FD8095982F46E04BDF88E091E05E
:100A7000B1DE60917C0170917D01882777FD8095C2
:100A8000982F46E03EDF82E191E0A4CECF92DF9244
:100A9000EF92FF920F931F93CF93DF932FB7F894AA
:100AA00080918801909189012FBF009709F483C13B
:100AB0008EE791E078DB8D3019F08A3009F070C153
:100AC00084E191E087DE80919902E82FF0E0E25521
:100AD000FD4F108280939802109299028091AE028D
:100AE000873659F0873449F08D3649F08D3439F026
:100AF0008A3739F08A3539F404C001E005C002E0D4
:100B000003C003E001C000E08091AF02883739F0F4
:100B1000883529F0893729F011E0893519F010E07E
:100B200001C011E0802F8150823008F06DC010921A
:100B30009D0210929C0210929B0210929A021092B7
:100B400097021092960292E0F92EDD24D39480E36E
:100B5000C82E54C0E0909702EE2049F4EF2DF0E04B
:100B6000E255FD4F80818D3211F4DD24DA94CF2DD2
:100B7000D0E0FE01E255FD4F808180538A3028F499
:100B8000EE20D9F5F092970238C0EE20B1F16E2D2B
:100B900070E0C61BD70B62557D4F8EE992E0AE0127
:100BA0000E94290FC256DD4F1882809196028F5FF6
:100BB00080939602813049F48EE992E00E940C0FF6
:100BC00090939D0280939C0216C08F2D8E198330C6
:100BD00040F4E82FF0E0E256FD4FC0828F5F833093
:100BE000C1F71092A1028EE992E00E940C0F90933F
:100BF0009B0280939A0210929702F394809198023C
:100C00008F1508F0A7CF02C0DD24D394023009F479
:100C10005FC0033009F4BAC0013009F0BFC087E1FA
:100C200091E0D8DD812F885ACDDDCD2DDD27C7FDA0
:100C3000D09560919C0270919D02CE010E94B10EF0
:100C4000BC0180E090E043E05CDE8EE2BBDD6091C1
:100C50009A0270919B0280E090E043E042DE84E1E2
:100C600091E0B8DD80919A0290919B026AE070E079
:100C70000E94B10E60EA71E00E94C30E9B01809158
:100C80009C0290919D0268E170E00E94B10E280FD5
:100C9000391FCE01B9010E94B10E112369F42091D0
:100CA0007A0130917B01E82EE7017E01F92EE70100
:100CB000C21BD30BCE014DC020917C0130917D0130
:100CC000E82EE7017E01F92EE701C21BD30B4FC0CE
:100CD0008DE191E07FDD812F885A74DDCD2DDD27F8
:100CE000C7FDD09560919C0270919D02CE010E943B
:100CF000B10EBC0180E090E043E003DE8EE262DDF5
:100D000060919A0270919B0280E090E043E0E9DDFF
:100D100084E191E05FDD80919A0290919B026AE00C
:100D200070E00E94B10E60EA71E00E94C30E9B0168
:100D300080919C0290919D0268E170E00E94B10E4A
:100D4000280F391FCE01B9010E94B10EEC01112309
:100D500071F460E070E032DE80917A0190917B0165
:100D60008C0F9D1F90937B0180937A0117C080E0C8
:100D700090E0BE0123DE80917C0190917D018C0F7B
:100D80009D1F90937D0180937C0108C010927B0190
:100D900010927A0110927D0110927C015ADE0BC0F4
:100DA00090919902E92FF0E0E255FD4F80839F5F1B
:100DB0009093990207DDDF91CF911F910F91FF90E2
:100DC000EF90DF90CF9008950F931F93DF93CF9311
:100DD0000F92CDB7DEB7B3DD46DC8EE791E06AE86F
:100DE00071E06FDA8AE092E066E172E06ADA7894A4
:100DF000AADB8FEF99E6A8E181509040A040E1F78F
:100E000000C00000789483E291E0E4DCADDB10E008
:100E1000DFDB3CDEA0DBCCDB082FBADB402F552725
:100E200047FD509520917A0130917B01240F351FA9
:100E300030937B0120937A01682F772767FD7095A7
:100E400080917C0190917D01860F971F90937D0189
:100E500080937C01CA01B2DD112329F0882319F4A3
:100E60008983F7DD8981AFE3BCE91197F1F700C011
:100E70000000182FCDCF923029F0933041F09130FF
:100E8000E9F417C02EE330E0EAEAF0E01BC081305D
:100E900041F0813018F0823089F406C0E8EEF0E0CD
:100EA00005C0ECEEF0E002C0E6E0F1E0249130E0B5
:100EB00009C022E130E0E8E9F0E004C020E030E0E1
:100EC000E0E0F0E0DA011196FC93EE93C901089599
:100ED000282F392FF9018091EE029091EF028617A9
:100EE000970718F4BC0120E034C061157105D9F7EB
:100EF0008091E8008E778093E800F5CF8EB3882349
:100F0000E9F18530B9F18091E80083FD35C0809129
:100F1000E80082FD29C08091E80080FF1AC080911E
:100F2000F20090E006C021912093F10061507040E2
:100F300001966115710519F088309105A0F321E043
:100F40008830910509F020E08091E8008E77809349
:100F5000E8006115710591F6222381F605C08EB374
:100F6000882361F0853061F08091E80082FFF7CF3F
:100F700080E0089583E0089581E0089582E0089577
:100F800083E00895E82FF92F8091EE029091EF020F
:100F90008617970718F4BC0120E036C0611571056B
:100FA000D9F78091E8008E778093E800F5CF8EB373
:100FB000882309F43EC08530C1F18091E80083FDAB
:100FC00036C08091E80082FD2AC08091E80080FF51
:100FD0001BC08091F20090E007C024912093F100A3
:100FE00031966150704001966115710519F0883095
:100FF000910598F321E08830910509F020E0809177
:10100000E8008E778093E8006115710581F6222350
:1010100071F605C08EB3882361F0853061F0809150
:10102000E80082FFF7CF80E0089583E0089581E033
:10103000089582E0089583E00895982F2CC0292F09
:101040002F702093E900981739F07091EC002091EF
:10105000ED005091F00003C0242F762F50E021FFC7
:1010600019C03091EB003E7F3093EB003091ED00E2
:101070003D7F3093ED003091EB0031603093EB0019
:101080007093EC002093ED005093F0002091EE005F
:1010900027FF08C09F5F953090F28F708093E90022
:1010A00081E0089580E00895EF92FF920F931F93DF
:1010B000CF93DF93162FE82EE7017E01F92EE7018B
:1010C00000E02AC09881992329F16B81E981FA8196
:1010D0002C81892F8F70853018F56295660F660F09
:1010E000607C991F9927991F692B223010F096E098
:1010F00001C092E028E030E040E003C04F5F220FE3
:10110000331F2E173F07D0F34295407F492B95DFC1
:10111000882331F00F5F25960117A0F281E001C00E
:1011200080E0DF91CF911F910F91FF90EF90089594
:101130008091E80287FF11C003C08EB38823B1F00D
:101140008091E80082FFF9CF8091E8008B7780934F
:10115000E80008958EB3882349F08091E80080FF6D
:10116000F9CF8091E8008E778093E8000895809110
:10117000E4009091E50044E62091EC0020FF25C0BA
:101180002091E80020FD15C02EB32223A1F02530C8
:10119000A1F02091EB0025FD12C02091E4003091D8
:1011A000E5002817390741F3442359F04150C9019C
:1011B000E3CF80E0089582E0089583E0089581E020
:1011C000089584E0089580E008952091E80022FFCA
:1011D000DBCFF9CF40D042D08091D8008F77809379
:1011E000D8008091D80080688093D8008091D80082
:1011F0008F7D8093D80084E089BD86E089BD09B4E5
:1012000000FEFDCF1EBA1092E4021092E602109288
:10121000E50280E060E042E010DF8091E1008E7F37
:101220008093E1008091E20081608093E2008091F0
:10123000E20088608093E2008091E0008E7F8093DE
:10124000E0000895E3E6F0E080818E7F808381E016
:101250008093E702BFCF1092E20008951092E10060
:1012600008951F920F920FB60F9211242F933F9360
:101270004F935F936F937F938F939F93AF93BF939E
:10128000EF93FF938091E10082FF0AC08091E2001A
:1012900082FF06C08091E1008B7F8093E10022D223
:1012A0008091E10080FF16C08091E20080FF12C0B3
:1012B0008091E2008E7F8093E2008091E200806165
:1012C0008093E2008091D80080628093D80019BC9E
:1012D0001EBADFD98091E10084FF2CC08091E2002A
:1012E00084FF28C084E089BD86E089BD09B400FE82
:1012F000FDCF8091D8008F7D8093D8008091E10050
:101300008F7E8093E1008091E2008F7E8093E200E7
:101310008091E20081608093E2008091E402882362
:1013200021F48091E30087FF02C084E001C081E0E6
:101330008EBBAED98091E10083FF26C08091E20090
:1013400083FF22C08091E100877F8093E10082E0EB
:101350008EBB1092E4028091E1008E7F8093E100C9
:101360008091E2008E7F8093E2008091E2008061B4
:101370008093E20080E060E042E05FDE8091F00078
:1013800088608093F000AED1FF91EF91BF91AF9153
:101390009F918F917F916F915F914F913F912F918D
:1013A0000F900FBE0F901F9018951F920F920FB6BF
:1013B0000F9211241F932F933F934F935F936F933B
:1013C0007F938F939F93AF93BF93EF93FF9310916E
:1013D000E9001F708091EC001092E9008091F0000C
:1013E000877F8093F00078941BD01092E900809161
:1013F000F00088608093F0001093E900FF91EF9176
:10140000BF91AF919F918F917F916F915F914F911C
:101410003F912F911F910F900FBE0F901F90189525
:101420001F93DF93CF93CDB7DEB7AC970FB6F89489
:10143000DEBF0FBECDBFE8EEF2E08091F1008193F8
:1014400022E0E03FF207C9F729D98091E80083FF45
:1014500031C18091E8022091E902253009F484C06D
:10146000263040F42130A1F1213070F0233009F012
:1014700021C12EC0283009F4EFC0293009F4FEC084
:10148000263009F017C192C0803821F0823809F067
:1014900011C108C08091E5029091E602992371F094
:1014A00082600CC08091EC028F708093E900909173
:1014B000EB0081E095FF80E01092E9009091E80058
:1014C000977F9093E8008093F1001092F100CFC0D5
:1014D000882319F0823009F0EDC090E08F71907090
:1014E000009729F08230910509F0E4C00BC080918B
:1014F000EA02813009F0DEC0233009F080E08093F9
:10150000E6022CC08091EA02882341F52091EC028A
:101510002F7009F4CFC02093E9008091EB0080FF89
:101520001DC08091E902833021F48091EB0080623C
:1015300013C08091EB0080618093EB0081E090E02C
:1015400002C0880F991F2A95E2F78093EA00109253
:10155000EA008091EB0088608093EB001092E90034
:101560008091E800877F86C0882309F0A3C010918E
:10157000EA021F778091E3008078812B8093E3005B
:101580008091E800877F8093E800D2DD8091E800B9
:1015900080FFFCCF8091E30080688093E3001123FB
:1015A00011F083E001C082E08EBB84C0805882309D
:1015B00008F080C08091EA029091EB0223E08C3D1C
:1015C000920791F583E08C838AE28B835FB7F8946E
:1015D000DE01159680E090E04EE061E2E42FF0E05D
:1015E00060935700E49180FF03C0E295EF704F5F76
:1015F000EF702E2F30E0EA3018F0295C3F4F02C028
:10160000205D3F4F2D933D9301968431910531F735
:101610005FBF8091E800877F8093E800CE0103964A
:101620006AE270E055DC12C06091EC02AE014F5FDF
:101630005F4F21DCBC01009709F43CC08091E800B9
:10164000877F8093E80089819A819CDC8091E80003
:101650008B778093E8002EC0803861F58091E80098
:10166000877F8093E8008091E4028093F10080916D
:10167000E8008E778093E8005BDD1CC08823D1F4FE
:101680009091EA029230B0F48091E800877F8093D5
:10169000E8009093E4024CDD8091E402882321F479
:1016A0008091E30087FF02C084E001C081E08EBB2F
:1016B0000E944A038091E80083FF0AC08091E800FD
:1016C000877F8093E8008091EB0080628093EB003D
:1016D000AC960FB6F894DEBF0FBECDBFCF91DF91B1
:1016E0001F91089508951F938EB38823A9F08091C8
:1016F000E9008F709091EC0090FF02C010E801C0EB
:1017000010E0182B1092E9008091E80083FF01C0DF
:1017100087DE1F701093E9001F910895CF93DF9328
:10172000EC018091E80083FFA3C0888190E02091C4
:10173000EC023091ED022817390709F099C0809129
:10174000E902813269F0823220F4803209F090C0DF
:101750003CC0823209F46BC0833209F089C07AC080
:101760008091E802813A09F083C08091E800877F88
:101770008093E8008091E80080FFFCCF8C899D89F0
:10178000AE89BF898093F100292F3A2F4B2F55271F
:101790002093F1009D01442755272093F1008B2FC2
:1017A0009927AA27BB278093F100888D8093F100A9
:1017B000898D8093F1008A8D8093F1008091E800FB
:1017C0008E778093E800B4DC53C08091E8028132C8
:1017D00009F04EC08091E800877F8093E80004C044
:1017E0008EB3882309F444C08091E80082FFF8CFCB
:1017F0003091F1002091F1009091F1008091F10081
:101800003C8B2D8B9E8B8F8B8091F100888F8091EC
:10181000F100898F8091F1008A8F8091E8008B77A9
:101820008093E80085DCCE010E947C0321C080917A
:10183000E8028132E9F48091E800877F8093E80034
:1018400077DC8091EA029091EB02998B888BCE0134
:10185000D4D00EC08091E802813251F48091E8002A
:10186000877F8093E80064DCCE016091EA02C5D0F6
:10187000DF91CF910895CF93DF93EC014096FC0167
:101880008BE0DF011D928A95E9F782E08C838987DE
:1018900083E08E87CE01019661E006DC882359F053
:1018A000CE01069661E000DC882329F0CE010B967C
:1018B00061E0FADB01C080E0DF91CF910895DF9312
:1018C000CF930F92CDB7DEB7FC018EB38430F9F41D
:1018D00024893589468957892115310541055105E6
:1018E000B1F081818F708093E9008091E80085FDDF
:1018F0000AC08091E8008E778093E800698337DC26
:101900006981882329F46093F10080E001C082E0BE
:101910000F90CF91DF910895FC018EB3843019F5BB
:101920002489358946895789211531054105510595
:10193000D1F081818F708093E9008091F20088233B
:10194000A1F09091E8008091E8008E778093E80004
:1019500095FD0DC00CDC882359F49091E8009E772A
:101960009093E800089582E0089580E0089580E073
:1019700008952EB3243099F4FC01248935894689D1
:101980005789211531054105510549F021812F70F5
:101990002093E9002091E80020FF01C0BDCF089509
:1019A000FC018EB3843029F524893589468957890D
:1019B0002115310541055105E1F086818F70809335
:1019C000E9008091E80082FF14C08091F200882332
:1019D00021F02091F10030E002C02FEF3FEF809125
:1019E000F200882341F48091E8008B778093E8002F
:1019F00002C02FEF3FEFC901089508955058BB274B
:101A0000AA270ED070C161D130F066D120F031F438
:101A10009F3F11F41EF456C10EF4E095E7FB4CC154
:101A2000E92F72D180F3BA1762077307840795070D
:101A300018F071F49EF58AC10EF4E0950B2EBA2FC2
:101A4000A02D0B01B90190010C01CA01A0011124C4
:101A5000FF27591B99F0593F50F4503E68F11A1670
:101A6000F040A22F232F342F4427585FF3CF469501
:101A700037952795A795F0405395C9F77EF41F1623
:101A8000BA0B620B730B840BBAF09150A1F0FF0FED
:101A9000BB1F661F771F881FC2F70EC0BA0F621FD9
:101AA000731F841F48F4879577956795B795F795C9
:101AB0009E3F08F0B3CF9395880F08F09927EE0F5B
:101AC000979587950895D4D008F481E008950CD0B7
:101AD0000AC102D140F0F9D030F021F45F3F19F093
:101AE000EBC0511134C1EEC00FD198F39923C9F363
:101AF0005523B1F3951B550BBB27AA276217730714
:101B0000840738F09F5F5F4F220F331F441FAA1FC7
:101B1000A9F333D00E2E3AF0E0E830D09150504087
:101B2000E695001CCAF729D0FE2F27D0660F771F35
:101B3000881FBB1F261737074807AB07B0E809F017
:101B4000BB0B802DBF01FF2793585F4F2AF09E3FAC
:101B5000510568F0B1C0FBC05F3FECF3983EDCF389
:101B6000869577956795B795F7959F5FC9F7880F25
:101B7000911D9695879597F90895E1E0660F771F77
:101B8000881FBB1F621773078407BA0720F0621B08
:101B9000730B840BBA0BEE1F88F7E0950895BCD049
:101BA00088F09F5790F0B92F9927B751A0F0D1F046
:101BB000660F771F881F991F1AF0BA95C9F712C0D0
:101BC000B13081F0C3D0B1E00895C0C0672F782F45
:101BD0008827B85F39F0B93FCCF38695779567953C
:101BE000B395D9F73EF490958095709561957F4FA8
:101BF0008F4F9F4F0895E89409C097FB3EF490954E
:101C00008095709561957F4F8F4F9F4F9923A9F0D5
:101C1000F92F96E9BB279395F69587957795679564
:101C2000B795F111F8CFFAF4BB0F11F460FF1BC0A8
:101C30006F5F7F4F8F4F9F4F16C0882311F096E93B
:101C400011C0772321F09EE8872F762F05C06623E9
:101C500071F096E8862F70E060E02AF09A95660FA2
:101C6000771F881FDAF7880F9695879597F908955B
:101C7000990F0008550FAA0BE0E8FEEF161617069D
:101C8000E807F907C0F012161306E407F50798F005
:101C9000621B730B840B950B39F40A2661F0232B1E
:101CA000242B252B21F408950A2609F4A140A6959A
:101CB0008FEF811D811D089597F99F6780E870E07F
:101CC00060E008959FEF80EC089500240A941616B2
:101CD000170618060906089500240A94121613061A
:101CE000140605060895092E0394000C11F48823A8
:101CF00052F0BB0F40F4BF2B11F460FF04C06F5FC4
:101D00007F4F8F4F9F4F089557FD9058440F551F99
:101D100059F05F3F71F04795880F97FB991F61F06D
:101D20009F3F79F087950895121613061406551FE4
:101D3000F2CF4695F1DF08C0161617061806991F50
:101D4000F1CF86957105610508940895E894BB2745
:101D500066277727CB0197F908958ADF08F48FEF7C
:101D600008955527002480FF02C0060E571F660FF6
:101D7000771F6115710521F096958795009799F762
:101D8000952F802D0895AA1BBB1B51E107C0AA1FE8
:101D9000BB1FA617B70710F0A61BB70B881F991F0C
:101DA0005A95A9F780959095BC01CD01089597FBB0
:101DB000092E07260AD077FD04D0E5DF06D00020E3
:101DC0001AF4709561957F4F0895F6F79095819577
:101DD0009F4F0895A1E21A2EAA1BBB1BFD010DC047
:101DE000AA1FBB1FEE1FFF1FA217B307E407F507CB
:101DF00020F0A21BB30BE40BF50B661F771F881FA7
:101E0000991F1A9469F760957095809590959B013C
:101E1000AC01BD01CF010895FC0188279927E89402
:101E200021912032E9F3293010F02E30C8F32B3203
:101E300039F02D3231F4689403C01AD0820F911D0D
:101E4000219120532A30C8F31EF4909581959F4F1D
:101E50000895FB01DC014150504048F001900D9283
:101E60000020C9F701C01D9241505040E0F708958D
:101E7000BC01880F991F880F991F860F971F880F25
:081E8000991F0895F894FFCFAB
:101E8800785F706F733A20002020795F706F733A23
:101E980020000D000D0A00474F544F20004D4F56AB
:101EA800452000796F752073656C656374656420DF
:101EB8007468652072656C617469766520706F73EB
:101EC8006974696F6E2064656D6F206D6F647573DA
:101ED8003A0A0D000083100000010410000001827E
:101EE8000800000100000000000000000000000AD7
:0A1EF8000905063020EC0027010068
:00000001FF
