:100000009AC00000B4C00000B2C00000B0C0000040
:10001000AEC00000ACC00000AAC00000A8C0000034
:10002000A6C00000A4C00000A2C000005AC6000084
:10003000FCC600009CC000009AC0000098C00000F0
:1000400096C0000094C0000092C0000090C0000064
:100050008EC00000D6C000008AC00000E2C20000CE
:1000600086C0000084C0000082C0000080C0000084
:100070007EC000007CC000007AC0000078C0000094
:1000800076C0000074C0000072C0000070C00000A4
:100090006EC000006CC000001201100102000008D8
:1000A000EB034B2001000102DC0109023E000201CA
:1000B00000C0320904000001020201000524001002
:1000C0000104240206052406000107058203080036
:1000D000FF09040100020A000000070504021000E5
:1000E00005070583021000050403090418034400F2
:1000F000650061006E002000430061006D00650036
:100100007200610000002E034C00550046004100C3
:1001100020005500530042002D00520053003200D1
:100120003300320020004100640061007000740060
:1001300065007200000011241FBECFEFD4E0DEBFC7
:10014000CDBF11E0A0E0B1E0E6E2F8E102C0059029
:100150000D92A234B107D9F712E0A2E4B1E001C0D8
:100160001D92A637B107E1F767D30C94110C48CF65
:10017000FC01A081B1816C93808191810196918372
:100180008083268137818217930721F484819581AA
:10019000918380832FB7F894828593850196938706
:1001A00082872FBF0895FC01A281B3818D91B38313
:1001B000A28326813781A217B30721F424813581D8
:1001C000338322839FB7F8942285338521503040B2
:1001D000338722879FBF0895FC012FB7F89471835E
:1001E0006083738362837583648360587F4F7783F2
:1001F000668380E890E091878087138612862FBF00
:1002000008951F920F920FB60F9211248F93809131
:1002100068028F5F809368028F910F900FBE0F90DE
:100220001F90189586B53091680220E0280F311D87
:10023000C901089516BC109268020895DF92EF92EA
:10024000FF920F931F93CF93DF9383E085BDF2DF7F
:10025000509A5898E7DFBC0180E090E00E94390B8B
:1002600020E030E84EE053E40E94A10A87FDF2CF7F
:1002700082E085BDDD24D39410E0DCDF509A5898ED
:10028000D1DFBC0180E090E00E94390B20E030E03B
:100290004CE852E40E94A10A87FDF2CF5098589A88
:1002A000C1DFBC0180E090E00E94390B20E030E02B
:1002B00048E453E40E94A10A87FDF2CF41C0C8E0A0
:1002C000D0E000E8E12EFF248FE592E0E80EF91E71
:1002D000B1DF509A5898F7018081802379F0A2DF2E
:1002E000BC0180E090E00E94390B20E030E04CE857
:1002F00052E40E94A10A87FDF2CF0EC093DFBC0139
:1003000080E090E00E94390B20E030E042E053E4CE
:100310000E94A10A87FDF2CF5098589A83DFBC0152
:1003200080E090E00E94390B20E030E048E453E4A4
:100330000E94A10A87FDF2CF0695219749F61F5F1B
:100340001D1508F4BCCF76DF509A58986BDFBC01BE
:1003500080E090E00E94390B20E030E042E053E47E
:100360000E94A10A87FDF2CF5098589A5BDFBC012A
:1003700080E090E00E94390B20E030E048E453E454
:100380000E94A10A87FDF2CF80915F028B3329F092
:10039000893341F429E0D22E02C093E0D92E1130E6
:1003A00009F46BCF47DF3EDFBC0180E090E00E94A4
:1003B000390B20E030E04AEF53E40E94EB0B1816B3
:1003C0000CF442C04899EFCF489BFECFC0E6D2E084
:1003D00011E001C0182F188288E0E82EF12C00E807
:1003E00029DF20DFBC0180E090E00E94390B20E093
:1003F00030E048E453E40E94EB0B181614F411505B
:1004000024C04899EECF16DF489BFECF0BDFBC011E
:1004100080E090E00E94390B20E030E048EC52E4AC
:100420000E94A10A87FF03C08881800F88830695F8
:100430000894E108F108E114F10491F6812F8F5F2F
:100440002196893039F601C010E0812FDF91CF91DC
:100450001F910F91FF90EF90DF9008955098589A58
:10046000EEE6F0E080818160808308958CE38093E4
:100470005F02E4DE809369028091690208958BE354
:1004800080935F0283E68093600284E08093610240
:10049000D5DE8DE380935F02D1DE89E380935F0236
:1004A00010926602CBCE80916402282F30E0207734
:1004B0003070359527958770822B089520916302BF
:1004C00030E027703070322F2227330F330F8091A6
:1004D000620290E0877090709695982F8827979584
:1004E0008795282B392B8091610290E08F7790704F
:1004F000282B392BC90108952091630230E0207721
:100500003070E6E0220F331FEA95E1F78091620236
:1005100090E08077907073E0880F991F7A95E1F7EB
:10052000282B392B8091600290E08F779070282BD8
:10053000392BC90108951F938FB7F89420914C016E
:1005400030914D018FBF80914A0190914B01281746
:10055000390749F085E291E061D7BC0197FD03C0FE
:1005600082E491E005DE2FB7F8948091D801909154
:10057000D9012FBF009701F1209126012F70209300
:10058000E9002091E80020FF17C08031910510F0AC
:100590008FE090E0182F0EC0E091D001F091D101D2
:1005A00085E291E06081C9D61150882329F48EEC50
:1005B00091E0F9DD112381F72FB7F89480914C0178
:1005C00090914D012FBF009749F082E491E0EBDD5F
:1005D0009091C80095FFFCCF8093CE0085E291E01A
:1005E00006D7C0D51F91089584B7877F84BF88E15F
:1005F0000FB6F89480936000109260000FBE90E0F8
:1006000080E80FB6F89480936100909361000FBE6C
:1006100059C30895089585E291E06BC685E291E0A3
:10062000BCC51F920F920FB60F9211242F933F93C8
:100630004F935F936F937F938F939F93AF93BF93EA
:10064000EF93FF936091CE008EB3843019F48EEC5B
:1006500091E08EDDFF91EF91BF91AF919F918F91CE
:100660007F916F915F914F913F912F910F900FBEAE
:100670000F901F9018958F929F92AF92BF92CF923A
:10068000DF92EF92FF921F93FC01A18DA150A23047
:1006900028F4B0E0A05CBE4F1C9101C010E0808D3A
:1006A000823009F41860828D873031F0883031F063
:1006B000863029F4126003C0146001C016601092E5
:1006C000C9001092C8001092CA00C488D588E68874
:1006D000F788C701B6019695879577956795C9D72D
:1006E00020E034E244EF59E4C8D64B015C01C70175
:1006F000B601BFD79B01AC01C501B40126D720E0EC
:1007000030E040E85FE3B8D688D77093CD006093BF
:10071000CC001093CA0082E08093C80088E98093DF
:10072000C9001F91FF90EF90DF90CF90BF90AF90E6
:100730009F908F900895682F8EB3843019F48EECBB
:1007400091E016CD0895EF92FF92CF93DF93E82EBC
:10075000E7017E01F92EE70101C0EDDF89918823D1
:10076000E1F7DF91CF91FF90EF9008952F923F92A4
:100770004F925F926F927F928F929F92AF92BF92B1
:10078000CF92DF92EF92FF920F931F93CF93DF935D
:100790007B018C01822F90E0FA01E80FF91F108293
:1007A000D22EDA944D2C552447FC5094EA01C40D06
:1007B000D51DAA24BB24BAE06B2E712C812C912C60
:1007C0001C01089421083108A0E2CA2E20C0E114BF
:1007D000F1040105110541F4C501840D951D821533
:1007E000930514F4C88207C0C801B701A40193019E
:1007F000F6D7605D6883C801B701A4019301EFD704
:1008000079018A01DA9421970894A108B108D7FEEA
:10081000DECFDF91CF911F910F91FF90EF90DF908E
:10082000CF90BF90AF909F908F907F906F905F9090
:100830004F903F902F900895FF920F931F93DF9357
:10084000CF93CDB7DEB760970FB6F894DEBF0FBE7B
:10085000CDBFCADE82E491E06EE471E0BDDC8EECD7
:1008600091E06AED71E0B8DC7894F8DD8FEF99E6FD
:10087000A8E181509040A040E1F700C000007894CA
:10088000FEDD8FEF99E6A8E181509040A040E1F7AE
:1008900000C00000FF248E010F5F1F4F4CDEF39459
:1008A000E9F7E4DD80E091E04EDF08DEBC0180E0A6
:1008B00090E0A80124E05ADFC80145DF88E091E01C
:1008C00042DF1ADEBC0180E090E0A80124E04EDFA8
:1008D000C80139DF83E191E036DFE5DD682F70E0A4
:1008E00080E090E0A80124E041DFC8012CDF83E232
:1008F00091E029DFD3CF923029F0933041F091304D
:10090000E9F417C02EE330E0EAEAF0E01BC08130E2
:1009100041F0813018F0823089F406C0E8EEF0E052
:1009200005C0ECEEF0E002C0E6E0F1E0249130E03A
:1009300009C022E130E0E8E9F0E004C020E030E066
:10094000E0E0F0E0DA011196FC93EE93C90108951E
:10095000282F392FF9018091740290917502861722
:10096000970718F4BC0120E034C061157105D9F770
:100970008091E8008E778093E800F5CF8EB38823CE
:10098000E9F18530B9F18091E80083FD35C08091AF
:10099000E80082FD29C08091E80080FF1AC08091A4
:1009A000F20090E006C021912093F1006150704068
:1009B00001966115710519F088309105A0F321E0C9
:1009C0008830910509F020E08091E8008E778093CF
:1009D000E8006115710591F6222381F605C08EB3FA
:1009E000882361F0853061F08091E80082FFF7CFC5
:1009F00080E0089583E0089581E0089582E00895FD
:100A000083E00895E82FF92F809174029091750288
:100A10008617970718F4BC0120E036C061157105F0
:100A2000D9F78091E8008E778093E800F5CF8EB3F8
:100A3000882309F43EC08530C1F18091E80083FD30
:100A400036C08091E80082FD2AC08091E80080FFD6
:100A50001BC08091F20090E007C024912093F10028
:100A600031966150704001966115710519F088301A
:100A7000910598F321E08830910509F020E08091FC
:100A8000E8008E778093E8006115710581F62223D6
:100A900071F605C08EB3882361F0853061F08091D6
:100AA000E80082FFF7CF80E0089583E0089581E0B9
:100AB000089582E0089583E00895982F2CC0292F8F
:100AC0002F702093E900981739F07091EC00209175
:100AD000ED005091F00003C0242F762F50E021FF4D
:100AE00019C03091EB003E7F3093EB003091ED0068
:100AF0003D7F3093ED003091EB0031603093EB009F
:100B00007093EC002093ED005093F0002091EE00E4
:100B100027FF08C09F5F953090F28F708093E900A7
:100B200081E0089580E00895EF92FF920F931F9364
:100B3000CF93DF93162FE82EE7017E01F92EE70110
:100B400000E02AC09881992329F16B81E981FA811B
:100B50002C81892F8F70853018F56295660F660F8E
:100B6000607C991F9927991F692B223010F096E01D
:100B700001C092E028E030E040E003C04F5F220F68
:100B8000331F2E173F07D0F34295407F492B95DF47
:100B9000882331F00F5F25960117A0F281E001C094
:100BA00080E0DF91CF911F910F91FF90EF9008951A
:100BB00080916E0287FF11C003C08EB38823B1F00D
:100BC0008091E80082FFF9CF8091E8008B778093D5
:100BD000E80008958EB3882349F08091E80080FFF3
:100BE000F9CF8091E8008E778093E8000895809196
:100BF000E4009091E50044E62091EC0020FF25C040
:100C00002091E80020FD15C02EB32223A1F025304D
:100C1000A1F02091EB0025FD12C02091E40030915D
:100C2000E5002817390741F3442359F04150C90121
:100C3000E3CF80E0089582E0089583E0089581E0A5
:100C4000089584E0089580E008952091E80022FF4F
:100C5000DBCFF9CF40D042D08091D8008F778093FE
:100C6000D8008091D80080688093D8008091D80007
:100C70008F7D8093D80084E089BD86E089BD09B46A
:100C800000FEFDCF1EBA10926A0210926C02109202
:100C90006B0280E060E042E010DF8091E1008E7F37
:100CA0008093E1008091E20081608093E200809176
:100CB000E20088608093E2008091E0008E7F809364
:100CC000E0000895E3E6F0E080818E7F808381E09C
:100CD00080936D02BFCF1092E20008951092E10060
:100CE00008951F920F920FB60F9211242F933F93E6
:100CF0004F935F936F937F938F939F93AF93BF9324
:100D0000EF93FF938091E10082FF0AC08091E2009F
:100D100082FF06C08091E1008B7F8093E10021D2A9
:100D20008091E10080FF16C08091E20080FF12C038
:100D30008091E2008E7F8093E2008091E2008061EA
:100D40008093E2008091D80080628093D80019BC23
:100D50001EBA60DC8091E10084FF2CC08091E2002B
:100D600084FF28C084E089BD86E089BD09B400FE07
:100D7000FDCF8091D8008F7D8093D8008091E100D5
:100D80008F7E8093E1008091E2008F7E8093E2006D
:100D90008091E20081608093E20080916A02882362
:100DA00021F48091E30087FF02C084E001C081E06C
:100DB0008EBB2FDC8091E10083FF26C08091E20092
:100DC00083FF22C08091E100877F8093E10082E071
:100DD0008EBB10926A028091E1008E7F8093E100C9
:100DE0008091E2008E7F8093E2008091E20080613A
:100DF0008093E20080E060E042E05FDE8091F000FE
:100E000088608093F000ADD1FF91EF91BF91AF91D9
:100E10009F918F917F916F915F914F913F912F9112
:100E20000F900FBE0F901F9018951F920F920FB644
:100E30000F9211241F932F933F934F935F936F93C0
:100E40007F938F939F93AF93BF93EF93FF931091F3
:100E5000E9001F708091EC001092E9008091F00091
:100E6000877F8093F00078941BD01092E9008091E6
:100E7000F00088608093F0001093E900FF91EF91FB
:100E8000BF91AF919F918F917F916F915F914F91A2
:100E90003F912F911F910F900FBE0F901F901895AB
:100EA0001F93DF93CF93CDB7DEB7AC970FB6F8940F
:100EB000DEBF0FBECDBFEEE6F2E08091F100819380
:100EC00022E0E637F207C9F7A9DB8091E80083FF4B
:100ED00030C180916E0220916F02253009F484C0E8
:100EE000263040F42130A1F1213070F0233009F098
:100EF00020C12EC0283009F4EFC0293009F4FEC00B
:100F0000263009F016C192C0803821F0823809F0ED
:100F100010C108C080916B0290916C02992371F00E
:100F200082600CC0809172028F708093E900909172
:100F3000EB0081E095FF80E01092E9009091E800DD
:100F4000977F9093E8008093F1001092F100CFC05A
:100F5000882319F0823009F0ECC090E08F71907016
:100F6000009729F08230910509F0E3C00BC0809111
:100F70007002813009F0DDC0233009F080E08093F9
:100F80006C022CC080917002882341F5209172027E
:100F90002F7009F4CEC02093E9008091EB0080FF10
:100FA0001DC080916F02833021F48091EB0080623C
:100FB00013C08091EB0080618093EB0081E090E0B2
:100FC00002C0880F991F2A95E2F78093EA001092D9
:100FD000EA008091EB0088608093EB001092E900BA
:100FE0008091E800877F86C0882309F0A2C0109115
:100FF00070021F778091E3008078812B8093E3005B
:101000008091E800877F8093E800D2DD8091E8003E
:1010100080FFFCCF8091E30080688093E300112380
:1010200011F083E001C082E08EBB83C08058823023
:1010300008F07FC0809170029091710223E08C3D96
:10104000920791F583E08C838AE28B835FB7F894F3
:10105000DE01159680E090E04EE061E2E42FF0E0E2
:1010600060935700E49180FF03C0E295EF704F5FFB
:10107000EF702E2F30E0EA3018F0295C3F4F02C0AD
:10108000205D3F4F2D933D9301968431910531F7BB
:101090005FBF8091E800877F8093E800CE010396D0
:1010A0006AE270E055DC12C060917202AE014F5FDF
:1010B0005F4F21DCBC01009709F43BC08091E80040
:1010C000877F8093E80089819A819CDC8091E80089
:1010D0008B778093E8002DC0803859F58091E80027
:1010E000877F8093E80080916A028093F10080916D
:1010F000E8008E778093E8005BDD1BC08823C9F48D
:10110000909170029230A8F48091E800877F8093DC
:10111000E80090936A024CDD80916A02882321F4F2
:101120008091E30087FF02C084E001C081E08EBBB4
:1011300072DA8091E80083FF0AC08091E800877F1F
:101140008093E8008091EB0080628093EB00AC9686
:101150000FB6F894DEBF0FBECDBFCF91DF911F91C8
:10116000089508951F938EB38823A9F08091E90014
:101170008F709091EC0090FF02C010E801C010E069
:10118000182B1092E9008091E80083FF01C088DEEF
:101190001F701093E9001F910895CF93DF93EC0126
:1011A0008091E80083FFA2C0888190E020917202C4
:1011B000309173022817390709F098C080916F02A7
:1011C000813269F0823220F4803209F08FC03CC055
:1011D000823209F46AC0833209F088C079C08091F4
:1011E0006E02813A09F082C08091E800877F809387
:1011F000E8008091E80080FFFCCF8C899D89AE8952
:10120000BF898093F100292F3A2F4B2F5527209328
:10121000F1009D01442755272093F1008B2F99273A
:10122000AA27BB278093F100888D8093F100898DD8
:101230008093F1008A8D8093F1008091E8008E7791
:101240008093E800B5DC52C080916E02813209F0D3
:101250004DC08091E800877F8093E80004C08EB382
:10126000882309F443C08091E80082FFF8CF3091D1
:10127000F1002091F1009091F1008091F1003C8B00
:101280002D8B9E8B8F8B8091F100888F8091F10048
:10129000898F8091F1008A8F8091E8008B7780930D
:1012A000E80086DCCE01E7D921C080916E02813250
:1012B000E9F48091E800877F8093E80079DC8091F1
:1012C000700290917102998B888BCE01D4D00EC0A0
:1012D00080916E02813251F48091E800877F809383
:1012E000E80066DCCE0160917002C5D0DF91CF913D
:1012F0000895CF93DF93EC014096FC018BE0DF0172
:101300001D928A95E9F782E08C83898783E08E8736
:10131000CE01019661E008DC882359F0CE010696E3
:1013200061E002DC882329F0CE010B9661E0FCDB52
:1013300001C080E0DF91CF910895DF93CF930F92AA
:10134000CDB7DEB7FC018EB38430F9F4248935893A
:10135000468957892115310541055105B1F0818133
:101360008F708093E9008091E80085FD0AC080912C
:10137000E8008E778093E800698339DC69818823EF
:1013800029F46093F10080E001C082E00F90CF91DA
:10139000DF910895FC018EB3843019F524893589D5
:1013A000468957892115310541055105D1F08181C3
:1013B0008F708093E9008091F2008823A1F09091D2
:1013C000E8008091E8008E778093E80095FD0DC0DD
:1013D0000EDC882359F49091E8009E779093E80002
:1013E000089582E0089580E0089580E008952EB386
:1013F000243099F4FC0124893589468957892115BF
:1014000031054105510549F021812F702093E900F4
:101410002091E80020FF01C0BDCF0895FC018EB3EC
:10142000843029F524893589468957892115310564
:1014300041055105E1F086818F708093E90080912C
:10144000E80082FF14C08091F200882321F02091EF
:10145000F10030E002C02FEF3FEF8091F2008823CF
:1014600041F48091E8008B778093E80002C02FEF71
:101470003FEFC901089508955058BB27AA270ED001
:1014800070C161D130F066D120F031F49F3F11F48A
:101490001EF456C10EF4E095E7FB4CC1E92F72D162
:1014A00080F3BA17620773078407950718F071F481
:1014B0009EF58AC10EF4E0950B2EBA2FA02D0B01DC
:1014C000B90190010C01CA01A0011124FF27591B89
:1014D00099F0593F50F4503E68F11A16F040A22F8F
:1014E000232F342F4427585FF3CF46953795279500
:1014F000A795F0405395C9F77EF41F16BA0B620BFF
:10150000730B840BBAF09150A1F0FF0FBB1F661F45
:10151000771F881FC2F70EC0BA0F621F731F841F88
:1015200048F4879577956795B795F7959E3F08F0AE
:10153000B3CF9395880F08F09927EE0F979587956D
:101540000895D4D008F481E008950CD00AC102D1E6
:1015500040F0F9D030F021F45F3F19F0EBC05111A9
:1015600034C1EEC00FD198F39923C9F35523B1F3D9
:10157000951B550BBB27AA2762177307840738F002
:101580009F5F5F4F220F331F441FAA1FA9F333D061
:101590000E2E3AF0E0E830D091505040E695001C15
:1015A000CAF729D0FE2F27D0660F771F881FBB1FD1
:1015B000261737074807AB07B0E809F0BB0B802DAB
:1015C000BF01FF2793585F4F2AF09E3F510568F0F7
:1015D000B1C0FBC05F3FECF3983EDCF38695779596
:1015E0006795B795F7959F5FC9F7880F911D9695F9
:1015F000879597F90895E1E0660F771F881FBB1F55
:10160000621773078407BA0720F0621B730B840B01
:10161000BA0BEE1F88F7E0950895BCD088F09F576D
:1016200090F0B92F9927B751A0F0D1F0660F771F2E
:10163000881F991F1AF0BA95C9F712C0B13081F00E
:10164000C3D0B1E00895C0C0672F782F8827B85F56
:1016500039F0B93FCCF3869577956795B395D9F76F
:101660003EF490958095709561957F4F8F4F9F4F79
:101670000895E89409C097FB3EF490958095709585
:1016800061957F4F8F4F9F4F9923A9F0F92F96E9CE
:10169000BB279395F695879577956795B795F11143
:1016A000F8CFFAF4BB0F11F460FF1BC06F5F7F4FE0
:1016B0008F4F9F4F16C0882311F096E911C07723F2
:1016C00021F09EE8872F762F05C0662371F096E8FB
:1016D000862F70E060E02AF09A95660F771F881FCA
:1016E000DAF7880F9695879597F90895990F00086E
:1016F000550FAA0BE0E8FEEF16161706E807F907E4
:10170000C0F012161306E407F50798F0621B730B7E
:10171000840B950B39F40A2661F0232B242B252BFF
:1017200021F408950A2609F4A140A6958FEF811DA2
:10173000811D089597F99F6780E870E060E0089543
:101740009FEF80EC089500240A94161617061806D9
:101750000906089500240A941216130614060506B5
:101760000895092E0394000C11F4882352F0BB0F46
:1017700040F4BF2B11F460FF04C06F5F7F4F8F4FA9
:101780009F4F089557FD9058440F551F59F05F3FE4
:1017900071F04795880F97FB991F61F09F3F79F093
:1017A00087950895121613061406551FF2CF469515
:1017B000F1DF08C0161617061806991FF1CF869597
:1017C0007105610508940895E894BB27662777277B
:1017D000CB0197F908958ADF08F48FEF0895A1E20D
:1017E0001A2EAA1BBB1BFD010DC0AA1FBB1FEE1F9B
:1017F000FF1FA217B307E407F50720F0A21BB30BE6
:10180000E40BF50B661F771F881F991F1A9469F761
:1018100060957095809590959B01AC01BD01CF01BD
:061820000895F894FFCFCB
:10182600785F706F733A2000202020795F706F73A5
:101836003A20002020207A5F707265737375726596
:101846003A20000D00008310000001041000000182
:1018560082080000010000000000000000000000F7
:02186600302030
:00000001FF
